:020000040800F2
:1000000088070020D5010008D52700086D060008E4
:10001000D1270008910500082D2A000800000000E3
:10002000000000000000000000000000D9270008C8
:100030009505000800000000D7270008C528000823
:10004000EF010008EF010008EF010008EF010008D0
:10005000EF010008EF010008A5050008EF01000806
:1000600031060008EF010008EF010008EF01000869
:10007000EF010008EF010008EF010008EF010008A0
:10008000EF010008EF010008EF010008EF01000890
:10009000EF010008EF010008EF010008EF01000880
:1000A000EF010008EF010008EF010008EF01000870
:1000B000EF0100087D290008A9290008EF010008C8
:1000C000EF010008EF010008EF010008EF01000850
:1000D000EF010008EF010008EF010008EF01000840
:1000E000E1050008EF010008EF010008EF0100083A
:1000F000EF010008EF010008EF010008EF01000820
:10010000EF010008EF010008EF010008EF0100080F
:10011000EF010008EF010008EF010008EF010008FF
:10012000EF010008EF010008EF010008EF010008EF
:1001300000F002F800F03EF80AA090E8000C8244BB
:100140008344AAF10107DA4501D100F033F8AFF298
:10015000090EBAE80F0013F0010F18BFFB1A43F0A5
:10016000010318477443000094430000103A24BF71
:1001700078C878C1FAD8520724BF30C830C144BF0C
:1001800004680C607047000000230024002500264E
:10019000103A28BF78C1FBD8520728BF30C148BFEA
:1001A0000B6070471FB59DE8030000F0EFF81FBD1E
:1001B00010B510BD00F06EF91146FFF7F3FF02F025
:1001C00079FC00F08CF903B4FFF7F2FF03BC00F0F8
:1001D000B9F900000948804709480047FEE7FEE7F3
:1001E000FEE7FEE7FEE7FEE7FEE7FEE7FEE7FEE7E7
:1001F00004480549054A064B704700001D290008C0
:1002000031010008880100208807002088030020B1
:100210008803002070B5064600F09CF8056806F1DA
:100220000B0020F00704B4429CBF002070BD2B4699
:100230006A68BAB11068A04210D304F1080188427C
:100240003CBF5068586007D351681019416011686D
:10025000091B016058601460101D70BD1346526880
:10026000002AE7D12146284600F07CF80028DED19C
:1002700070BD70B50446051F00F06CF80068002CD6
:1002800014BF446870BD002C18BFAC423CBF204670
:100290006468F8D301680A18AA4218BF456003D100
:1002A0002A6805461144016028684119A1421CBF13
:1002B0006C6070BD6168696021680844286070BD29
:1002C00040EA0103024630B59B0710D14FF00134DC
:1002D00000E008C208C91D1B9D4315EAC41FF8D0E1
:1002E00013F0FF0102F8011B0DD01B0AF8E711F80B
:1002F000013B002B02F8013B05D011F8013B002B1C
:1003000002F8013BF3D130BD4FF000020429C0F0E8
:10031000128010F0030C00F07180CCF1040CBCF1E1
:10032000020F18BF00F8012BA8BF20F8022BA1EB89
:100330000C0100F063B85FEAC17C24BF00F8012B18
:1003400000F8012B48BF00F8012B70477047704739
:1003500070470000004870472C010020704770472C
:100360007047704738B504460A4600206946AFF327
:100370000080002808BF38BD02460099204600F0E2
:1003800067F8012038BD012000F07CB8F8B5AFF364
:100390000080054600200C46102000BF0646A81924
:1003A000A0420DD9324669460020AFF30080070015
:1003B00008BF00F067F80098A04218BF0546C419AE
:1003C000FFF7C8FF05600746F01D20F0070046193B
:1003D000284600F00AF8B44208BFF8BDA21B314617
:1003E0003868BDE8F84000F033B800210160C0E98A
:1003F00001107047102070474FF0000200B51346FF
:1004000094469646203922BFA0E80C50A0E80C5034
:10041000B1F12001BFF4F7AF090728BFA0E80C50E5
:1004200048BF0CC05DF804EB890028BF40F8042BDE
:1004300008BF704748BF20F8022B11F0804F18BF4B
:1004400000F8012B7047000000487047240100208D
:10045000034640688C46002818BF88423CBF0346CC
:100460004068F8D318681844884207D00CF103009C
:1004700020F00700001D411A521A0146081D0A60AB
:10048000FFF7F7BE10B500F035F8BDE8104000F0FA
:100490002CB870477546FFF7D7FFAE460500694692
:1004A000534620F00700854618B020B5FFF7A0FEA0
:1004B000BDE820404FF000064FF000074FF0000865
:1004C0004FF0000B21F00701AC46ACE8C009ACE8E6
:1004D000C009ACE8C009ACE8C0098D4670470446C5
:1004E000AFF300802046FFF76EFE002801D000F039
:1004F00029B8704710B5012805D0002103A000F0ED
:1005000027F8012010BD09A1F8E700005349475220
:10051000544D454D3A204F7574206F6620686561D3
:1005200070206D656D6F7279000000003A2048659B
:100530006170206D656D6F727920636F7272757076
:100540007465640001491820ABBEFEE72600020076
:1005500070B505460C460A2000E06D1C00F011F84D
:1005600035B128780028F8D102E0641C00F009F8C1
:1005700014B120780028F8D1BDE870400A20AFF30C
:10058000008008B569468DF800000320ABBE08BDA9
:1005900000BFFEE77047002100E0491C8142FCD308
:1005A0007047000010B500240EE0202009490860C3
:1005B0000948FFF7F0FF20200649091F0860064898
:1005C000FFF7E9FF601CC4B20A2CEEDB01200349EF
:1005D000086010BD1418014040420F00140401408F
:1005E0000F480178012088400E49096881430D4871
:1005F00001600D488068C0F380200949097888406F
:100600000849096808430749086005480068401C14
:10061000034908604FF400600449086008607047AF
:1006200008000020040000200010014014040140D4
:1006300010B500240EE02020094908600948FFF7A2
:10064000AAFF20200649091F08600648FFF7A3FFFC
:10065000601CC4B20A2CEEDB04200349086010BD04
:10066000140C014040420F001404014000BFFEE79B
:1006700010B540210148FFF747FE10BDD80000200B
:1006800000200CE0002106E00022064B03EBC00333
:100690005A544A1CD1B20829F6DB421CD0B20828B1
:1006A000F0DB70475800002010B540210148FFF7EB
:1006B0002BFE10BD980000202DE9F04F85B00746B5
:1006C000884691464B4BD3E90021D3E90203CDE99B
:1006D0000303CDE90121484890F800B0002682E0EC
:1006E0004FF0000A7CB24FFA88F501A810F8160006
:1006F0008DF8000001A800EB460040788DF801005D
:100700009DF80100204444B29DF80000284445B201
:100710005EE0BAF1000F06D1384800EBC400405D3E
:10072000484500D15CE0354800EBC400405D00B9AD
:1007300056E0324800EBC400405D584501D14FF00F
:10074000010ABAF1000F3BD02C4800EBC400405D19
:10075000484535D19DF80000404240B28DF8000078
:100760009DF80100404240B28DF801009DF8010063
:10077000204444B29DF80000284445B21BE02048C4
:1007800000EBC400405D70B9E1B21E48006802F0A1
:1007900079F9E9B21C48006802F074F9012018499F
:1007A00001EBC40148559DF80100204444B29DF876
:1007B0000000284445B2BC42E1D14545DFD10FE0FD
:1007C0009DF80100204444B29DF80000284445B241
:1007D000002C05DB082C03DA002D01DB082D98DB4B
:1007E00000BF701CC6B2082EFFF67AAF05B0BDE898
:1007F000F08F0000C84400083B0000205800002093
:10080000D80000204C0000205000002030B50246E7
:100810000B460B4C247860B2094C647861B2C41862
:1008200060B28C1861B2002803DB082801DA044D9D
:100830002870002903DB082901DA014D697030BDF9
:100840002A0000202DE9F04F87B081464FF0000AC2
:10085000444BD3E90020D3E9021304AC0BC4039248
:10086000414800780190002675E000276FE03F487E
:1008700000EBC600C05D484567D14FF0000861E05D
:100880004FF0000B74B27DB203A810F818008DF879
:10089000080003A800EB480040788DF809009DF897
:1008A0000900204444B29DF80800284445B23CE0C9
:1008B0002E4800EBC400405D484500D13DE0BBF14F
:1008C000000F05D1294800EBC400405D00B934E0B9
:1008D000264800EBC400415D0198814201D14FF0F0
:1008E000010BBBF1000F18D0204800EBC400405DA5
:1008F00098B90AF1010000F0FF0A01201C4901EB40
:10090000C4014855E1B21B48006802F0BBF8E9B2E7
:100910001948006802F0B6F80FE09DF8090020447D
:1009200044B29DF80800284445B2002C05DB082C91
:1009300003DA002D01DB082DBADB00BF08F101004E
:1009400000F0FF08B8F1080F9ADB781CC7B2082F37
:100950008DDB701CC6B2082E87DB504607B0BDE8A1
:10096000F08F0000B84400083B0000205800002031
:100970009800002044000020480000200C488069B6
:1009800040F008000A4988610A48006820F00F001A
:10099000084908600846006840F0030008608815B0
:1009A00004491031086000200349087070470000B6
:1009B00000100240040C014000000020174880692C
:1009C00040F00800154988610846806940F0400001
:1009D00088611348006820F47000114908600846D7
:1009E000006840F44010086020200D491031086074
:1009F0000C48006820F470000A4908600846006846
:100A000040F44010086020200649103108600020A2
:100A10000549087005490870704700000010024041
:100A2000000C014000180140230000202400002099
:100A3000014601F007021202054B18684FF6FF034A
:100A40001840044B18431043014B186070470000D6
:100A50000CED00E00000FA052648806940F0100027
:100A6000244988612448406820F47F402249486036
:100A70000846406840F4084048600846006940F471
:100A8000006008610846006940F480600861194808
:100A9000806940F00100174988611848006920F416
:100AA000704116480161006940F40051134801612A
:100AB0001348006840F400601149086010480C3089
:100AC000006840F400600E490C31086005210D48B3
:100AD00001700D48006820F480704FF0E021C1F8EB
:100AE00004010846D0F8040140F48070C1F8040104
:100AF000704700000010024000100140000001405B
:100B00000004014028E400E004E100E000204FF090
:100B1000E0210861034848610846006940F003008D
:100B2000086170471D63010070B50FE00B48006855
:100B300001F090FF05460A48006801F08BFF04466B
:100B400040F2EF722146284600F038FC0348006866
:100B500002F02AFD0028E9D070BD0000440000200A
:100B60004800002010B503460C462A2001F072FD13
:100B7000181201F069FDD8B201F066FD012001F004
:100B800063FD3F2001F060FD2B2001F063FD20128A
:100B900001F05AFDE0B201F057FD012001F054FDD3
:100BA000DF2001F051FD2C2001F054FD104601F032
:100BB0004BFD10BDF0B507460C46059D00262A20CA
:100BC00001F048FD201201F03FFDE0B201F03CFDD4
:100BD000A118491EC1F30F2001F036FDA118491ECE
:100BE000C8B201F031FD2B2001F034FD181201F0E4
:100BF0002BFDD8B201F028FD5919491EC1F30F2071
:100C000001F022FD5919491EC8B201F01DFD2C202A
:100C100001F020FD00BF03E0384601F015FD761C11
:100C200002FB05F0B042F7D8F0BD2DE9F8410446CB
:100C30000D46164605EB8500800000F1270804EB01
:100C40008400800000F14F07082C25DA082D23DAF4
:100C500016203B460222414600903046FFF7AAFF8D
:100C60001620009008F1140081B23B460222304663
:100C7000FFF7A0FF02203B46162241460090304677
:100C8000FFF798FF0220009007F1140083B21622AC
:100C900041463046FFF78EFFBDE8F88100B5534866
:100CA000406940F48070514948610846806940F0CD
:100CB000080088610846806940F020008861084685
:100CC000806940F0400088610846806940F4807087
:100CD00088614748006820F00F00454908600846D1
:100CE000006840F00300086042480068424908403C
:100CF0004049086008460068404908433D4908608B
:100D0000081F006800F0FF20091F086008460068FF
:100D100040F0BB1008603A4800680020384908607D
:100D20000846006840F0BB300860081F006820F0EB
:100D30007040091F08600846006840F030400860B5
:100D40003048406820F470202E49486008464068CA
:100D500040F4302048600846006820F00F0008602A
:100D60000846006840F00B00086000204FF020416A
:100D70008861C861244908604FF02040806940F4D0
:100D800080504FF0204188610846806940F48040DF
:100D900088610846806940F0100088610846C06993
:100DA000C8610846C06940F00100C8610846C069D2
:100DB00040F47060C86114480068C1F81C01124812
:100DC0000068C1F81C010846D0F81C0140F44070CE
:100DD000C1F81C010846806940F00100886100F0FC
:100DE00061F8012002491031086000BD0010024086
:100DF000000C01400414014000F0FF00BB0B00BBDD
:100E000004180140002001401C0100A02DE9F84F0A
:100E100081468A4614469B46102708200090202CC5
:100E200001DB7F2C01DBBDE8F88FA4F12000C4B208
:100E300000252CE04FF0000822E0002619E01848B9
:100E400000EB0410012101EB4601491B405C40FA14
:100E500008F000F0010050B1082202FB05A2424454
:100E600091B209EB060290B25A46FFF77BFE701C66
:100E7000C6B200988642E2DB08F1010000F0FF08EC
:100E800007EBD771B8EB610FD7DB681CC5B2F91758
:100E900007EB5171B5EBE10FCCDB00BFC3E70000FE
:100EA0000E3B000800B5012001F0D4FB112001F039
:100EB000D1FB3A2001F0CEFB552001F0C5FB2920E3
:100EC00001F0C8FB362001F0C5FBC82001F0BCFBD7
:100ED00000BD00002DE9F04F04460D4616469A4627
:100EE000DDF8249010224FF0080B202E01DB7F2E1E
:100EF00001DBBDE8F08FA6F12000C6B22A2001F088
:100F0000A9FB201201F0A0FBE0B201F09DFB04EB75
:100F10000B01491EC1F30F2001F096FB04EB0B01FE
:100F2000491EC8B201F090FB2B2001F093FB281260
:100F300001F08AFBE8B201F087FBA918491EC1F352
:100F40000F2001F081FBA918491EC8B201F07CFBFB
:100F50002C2001F07FFB002327E04FF000081DE06C
:100F6000002715E0154800EB0610012101EB4701B1
:100F7000C91A405C40FA08F000F0010018B1504670
:100F800001F062FB02E0484601F05EFB781CC7B24C
:100F90005F45E7DB08F1010000F0FF0802EBD271CA
:100FA000B8EB610FDCDB581CC3B2D11702EB5171F7
:100FB000B3EBE10FD1DB00BF9BE700000E3B000865
:100FC0002DE9F04F04460D4617469A46DDF8249069
:100FD00010229346062F01DBBDE8F08F2A2001F096
:100FE00039FB201201F030FBE0B201F02DFB04EBE5
:100FF0000B01491EC1F30F2001F026FB04EB0B018E
:10100000491EC8B201F020FB2B2001F023FB28125F
:1010100001F01AFBE8B201F017FBA918491EC1F351
:101020000F2001F011FBA918491EC8B201F00CFBFA
:101030002C2001F00FFB002327E04FF000081DE0FB
:10104000002615E0154800EB4710012101EB460191
:10105000C91A405C40FA08F000F0010018B150468F
:1010600001F0F2FA02E0484601F0EEFA701CC6B256
:101070005E45E7DB08F1010000F0FF0802EBD271EA
:10108000B8EB610FDCDB581CC3B2D11702EB517116
:10109000B3EBE10FD1DB00BF9EE70000FE4000088C
:1010A000F0B585B027254F2651A103C9CDE903012D
:1010B00051A103C9CDE90101A220334602462946C8
:1010C00000900020FFF776FD9E20B31CA91C02466D
:1010D000009040F2EF70FFF76DFD012419E09E20B3
:1010E0000090B01C83B2142000FB045081B2022295
:1010F0000020FFF75FFD02200090142000FB046039
:1011000083B2A81C81B29E220020FFF753FD601C11
:10111000C4B2082CE3DB002429E04FF6FF70EB1D7E
:10112000082707FB04330C2707FB0433009098B211
:1011300004F13103DAB2A6F1140399B20023FFF7E8
:10114000C9FE4FF6FF70F31C102707FB043304277A
:1011500007FB043399B204F14103DAB2A5F110039D
:10116000009098B20023FFF7B5FE601CC4B2082CB3
:10117000D3DB50254FF48E76002417E003A90A5DD7
:10118000082101FB045188B200233146FFF73EFEDF
:1011900001AB1A5DA6F5847399B2082303FB0453CF
:1011A00098B20023FFF732FE601CC4B2072CE5DBC7
:1011B00001211348C17680F824100221017780F8BC
:1011C000231001220321084600F0A6F90122042180
:1011D000084600F0A1F902220421032000F09CF946
:1011E00002220321042000F097F905B0F0BD0000B1
:1011F000424C41434B203A005748495445203A005D
:10120000580000202DE9F0418AB000255E262327F2
:101210002320FEF7FFFF804653A3D3E90012D3E952
:101220000203CDE90803CDE9061253A3D3E9002058
:10123000D3E9021303AC0BC402925348007853491C
:101240000978884209DD0E2751A14046FFF738F89A
:101250004FA1022001F0BEFB18E04B4800784B493B
:101260000978884209DA0E274DA14046FFF728F891
:101270004BA1022001F0AEFB08E004274CA1404640
:10128000FFF71EF84AA1022001F0A4FB4AA10220A8
:1012900001F0A0FB84203346F02229460090002074
:1012A000FFF788FC3C2506F11E0086B200241DE0F5
:1012B000002002A900900A5D082101FB045188B2B8
:1012C0004FF6FF733146FFF705FE002006AB009096
:1012D0001A5D06F1180399B2082303FB045398B270
:1012E0004FF6FF73FFF7F6FD601CC4B20E2CDFDB78
:1012F000002000909DF8162005F1700188B21F2390
:101300003146FFF7E7FD002000909DF8262006F10A
:10131000180399B205F1700398B24FF47843FFF7C0
:10132000D9FDF900C1F1F00000EBD071C1F34F0518
:1013300006F1380086B200240EE00020009018F874
:101340000420082101FB045188B24FF6E0733146B6
:10135000FFF7C0FD601CC4B2BC42EEDB4046FEF7A6
:1013600088FF0AB0BDE8F0815245535441525420E1
:101370007072657373203700544F20484F4D4520DD
:101380007072657373203800280000202900002047
:1013900057494E4E4552203A20424C41434B0000A3
:1013A00057494E4E4552203A20574849544500006F
:1013B00044524157000000000A0000002DE9F841A6
:1013C00004460D4616462A2000EB051000EB85006A
:1013D00087B2522000EB041000EB84001FFA80F863
:1013E0000420009008F1060083B2B81D81B20422E7
:1013F0003046FFF7DFFBBDE8F88100002DE9F84338
:1014000005464FF024082320FEF704FF074611A1EC
:101410003846FEF755FF012D02D14FF4827602E0E7
:10142000022D00D12C2600240DE04FF6FF70009015
:101430003A5D082101FB048188B200233146FFF7A1
:1014400049FD601CC4B2152CEFDB3846FEF711FFD6
:10145000BDE8F8834E4F204C6567616C204D6F7678
:10146000652E2E2E20534B49500000002DE9F84FD9
:101470008046894693464FF0100A1020009050464F
:101480004FEAEA710AEB5171CF1000253CE00024CD
:1014900036E000262FE0781E06FB0700401B1C49A3
:1014A000085C204100F0010050B1082202FB0592C7
:1014B000224491B208EB060290B20022FFF752FBE1
:1014C000BBF1020F15D1781E06FB0700401B114926
:1014D000085C204100F0010058B1082202FB05928F
:1014E000224491B208EB060290B24FF6FF72FFF76A
:1014F00039FB701CC6B200988642CCDB601CC4B2BB
:10150000082CC6DB681CC5B2BD42C0DBBDE8F88F45
:1015100076440008964400082DE9F04104460D4643
:1015200016462A2000EB051000EB8507522000EB41
:10153000041000EB8408012E10D1164800EBC40003
:10154000405D022804D114480078401E12490870FA
:1015500012480078401C1149087011E0022E0FD18A
:101560000C4800EBC400405D012804D10B48007812
:10157000401E0A49087008480078401C0649087057
:10158000324641463846FFF771FF304601F004F815
:10159000BDE8F0815800002029000020280000202C
:1015A00001B590B0F8A2D2E901311068D268CDE956
:1015B0000A310C920990F8A30FCBCDE90723CDE9AE
:1015C00005012320FEF726FE049064200E904FF4C0
:1015D00090700D90F4A10498FEF772FE00200F9019
:1015E00015E04FF6FF7000900F990498405C03904F
:1015F00008220E9802FB010080B200230290039A99
:101600000D99FFF767FC0F98401CC0B20F900F9820
:101610000528E6DB1098012878D108200E900D9857
:10162000203880B20D90E2A10498FEF749FE002018
:101630000F9015E04FF6FF7000900F990498405CF2
:10164000039008220E9802FB010080B20023029052
:10165000039A0D99FFF73EFC0F98401CC0B20F9003
:101660000F981728E6DB0D98183880B20D90D6A198
:101670000498FEF725FE00200F9015E04FF6FF704E
:1016800000900F990498405C039008220E9802FB8A
:10169000010080B200230290039A0D99FFF71AFC13
:1016A0000F98401CC0B20F900F981828E6DB0D98D9
:1016B000183880B20D90CBA10498FEF701FE0020EF
:1016C0000F9015E04FF6FF7000900F990498405C62
:1016D000039008220E9802FB010080B200230290C2
:1016E000039A0D99FFF7F6FB0F98401CC0B20F90BC
:1016F0000F981728E6DB0D98203880B20D90BFA117
:101700000498FEF7DDFD00200F9016E0DFE04FF6B5
:10171000FF7000900F990498405C039008220E9887
:1017200002FB010080B200230290039A0D99FFF79B
:10173000D1FB0F98401CC0B20F900F981A28E6DB1F
:101740000D98183880B20D90B3A10498FEF7B8FD3B
:1017500000200F9015E04FF6FF7000900F9904984D
:10176000405C039008220E9802FB010080B2002327
:101770000290039A0D99FFF7ADFB0F98401CC0B281
:101780000F900F981928E6DB0D98183880B20D904D
:10179000A8A10498FEF794FD00200F9015E04FF6E5
:1017A000FF7000900F990498405C039008220E98F7
:1017B00002FB010080B200230290039A0D99FFF70B
:1017C00089FB0F98401CC0B20F900F981C28E6DBD5
:1017D0000D98183880B20D909EA10498FEF770FD08
:1017E00000200F9015E04FF6FF7000900F990498BD
:1017F000405C039008220E9802FB010080B2002397
:101800000290039A0D99FFF765FB0F98401CC0B238
:101810000F900F981B28E6DB44200E9038200D9087
:1018200000200F902DE04FF6FF7009A900900F984F
:10183000085C03900822DDE90E0102FB010080B282
:1018400000230290039A0D99FFF744FB4FF6FF70B7
:1018500005A900900F98085C03900D98203880B27D
:1018600002900822DDE90E0102FB010080B2002394
:101870000190DDE90212FFF72DFB0F98401CC0B26A
:101880000F900F980B28CEDB4FF6FF7000909DF85D
:101890002F0003900E98583080B24FF47843029096
:1018A000039A0D99FFF716FB4FF6FF7000909DF815
:1018B0001F0003900D98203880B202900E98583087
:1018C00080B21F230190DDE90212FFF703FB10989D
:1018D000022857D1C8204B23F022002100904FF658
:1018E000FF70FFF767F908200E900D98203880B23E
:1018F0000D9060A10498FEF7E3FC00200F9015E026
:101900004FF6FF7000900F990498405C03900822F6
:101910000E9802FB010080B200230290039A0D99F9
:10192000FFF7D8FA0F98401CC0B20F900F981928F3
:10193000E6DB0D98183880B20D9055A10498FEF79B
:10194000BFFC00200F9015E04FF6FF7000900F993C
:101950000498405C039008220E9802FB010080B2BC
:1019600000230290039A0D99FFF7B4FA0F98401CD8
:10197000C0B20F900F981328E6DB0D98183880B28C
:101980000D908FE03EE100004241434B20707265B4
:1019900073732037000000004E4558542070726564
:1019A000737320380000000052554C45530000006E
:1019B00053544152543A20426C61636B2064697302
:1019C0006320706C6179730066697273742E2046AF
:1019D0006F757220646973637320706C61636564F2
:1019E000000000006F6E2074686520626F61726491
:1019F00020696E697469616C6C792E0041435449A9
:101A00004F4E3A20506C61636520796F7572206487
:101A100069736320746F0000737572726F756E6402
:101A2000206F70706F6E656E7427732064697363C6
:101A30002E000000537572726F756E6465642064C9
:101A400069736320697320636F6E76657274656471
:101A500000000000746F20737572726F756E646998
:101A60006E672064697363277320636F6C6F722ED7
:101A7000000000004D4F56453A20506C6163696E7E
:101A80006720612064697363206D757374000000C2
:101A9000737572726F756E64206174206C6561730A
:101AA00074203100FCA10498FEF70AFC00200F907E
:101AB00015E04FF6FF7000900F990498405C03907A
:101AC00008220E9802FB010080B200230290039AC4
:101AD0000D99FFF7FFF90F98401CC0B20F900F98B7
:101AE0001828E6DB0D98183880B20D90F1A1049803
:101AF000FEF7E6FB00200F9015E04FF6FF70009018
:101B00000F990498405C039008220E9802FB010094
:101B100080B200230290039A0D99FFF7DBF90F982A
:101B2000401CC0B20F900F981A28E6DB0D981838A9
:101B300080B20D90E6A10498FEF7C2FB00200F9042
:101B400015E04FF6FF7000900F990498405C0390E9
:101B500008220E9802FB010080B200230290039A33
:101B60000D99FFF7B7F90F98401CC0B20F900F986E
:101B70001928E6DB0D98203880B20D90DBA104987F
:101B8000FEF79EFB00200F9015E04FF6FF700090CF
:101B90000F990498405C039008220E9802FB010004
:101BA00080B200230290039A0D99FFF793F90F98E2
:101BB000401CC0B20F900F980C28E6DB0D98183827
:101BC00080B20D90CDA10498FEF77AFB00200F9013
:101BD00015E04FF6FF7000900F990498405C039059
:101BE00008220E9802FB010080B200230290039AA3
:101BF0000D99FFF76FF90F98401CC0B20F900F9826
:101C00001228E6DB109803287DD1C8204B23F02250
:101C1000002100904FF6FF70FEF7CCFF08200E90D9
:101C20000D98203880B20D90B9A10498FEF748FBBA
:101C300000200F9015E04FF6FF7000900F99049868
:101C4000405C039008220E9802FB010080B2002342
:101C50000290039A0D99FFF73DF90F98401CC0B20E
:101C60000F900F981A28E6DB0D98183880B20D9067
:101C7000AEA10498FEF724FB00200F9015E04FF66C
:101C8000FF7000900F990498405C039008220E9812
:101C900002FB010080B200230290039A0D99FFF726
:101CA00019F90F98401CC0B20F900F980E28E6DB70
:101CB0000D98183880B20D90A0A10498FEF700FB93
:101CC00000200F9015E04FF6FF7000900F990498D8
:101CD000405C039008220E9802FB010080B20023B2
:101CE0000290039A0D99FFF7F5F80F98401CC0B2C7
:101CF0000F900F981A28E6DB0D98183880B20D90D7
:101D000095A1049800E089E0FEF7DAFA00200F9030
:101D100015E04FF6FF7000900F990498405C039017
:101D200008220E9802FB010080B200230290039A61
:101D30000D99FFF7CFF80F98401CC0B20F900F9885
:101D40000B28E6DB0D98203880B20D9085A1049811
:101D5000FEF7B6FA00200F9015E04FF6FF700090E6
:101D60000F990498405C039008220E9802FB010032
:101D700080B200230290039A0D99FFF7ABF80F98F9
:101D8000401CC0B20F900F981828E6DB0D98183849
:101D900080B20D907AA10498FEF792FA00200F907D
:101DA00015E04FF6FF7000900F990498405C039087
:101DB00008220E9802FB010080B200230290039AD1
:101DC0000D99FFF787F80F98401CC0B20F900F983D
:101DD0001428E6DB0D98183880B20D906EA1049897
:101DE000FEF76EFA00200F9015E04FF6FF7000909E
:101DF0000F990498405C039008220E9802FB0100A2
:101E000080B200230290039A0D99FFF763F80F98B0
:101E1000401CC0B20F900F981528E6DB10980428DC
:101E200039D1C8204B23F022002100904FF6FF70DB
:101E3000FEF7C0FE08200E900D98203880B20D905D
:101E40005BA10498FEF73CFA00200F9015E04FF6D6
:101E5000FF7000900F990498405C039008220E9840
:101E600002FB010080B200230290039A0D99FFF754
:101E700031F80F98401CC0B20F900F980928E6DB8C
:101E80000D98183880B20D904CA10498FEF718FAFE
:101E900000200F90B2E08DE16F70706F6E656E7410
:101EA00027732064697363202861206C6567616C07
:101EB000000000006D6F7665292E204966206120A4
:101EC000706C6179657220646F65736E27740000B1
:101ED000686176652069742C20736B697020746862
:101EE000656972207475726E2E000000454E4420A4
:101EF00047414D453A2069660000000028312920FD
:101F0000426F6172642069732066756C6C2E0000EC
:101F1000283229204F6E6520706C617965722068C7
:101F20006173206E6F206D6F72650000646973636A
:101F3000206F6E20626F6172642E000028332920AA
:101F4000426F746820706C6179657220646F6E27CF
:101F500074206861766500006C6567616C206D6F48
:101F600076652E0057494E4E45523A20706C617985
:101F700065722077697468206D6F726500000000DB
:101F80006469736373206F6E20626F61726420777F
:101F9000696E732E00000000496620657175616CE2
:101FA000732C207468656E20647261772E000000C7
:101FB000434F4E54524F4C533A00000028312920D1
:101FC0004B5031203D204D4F5645204C4546540046
:101FD0004FF6FF7000900F990498405C0390082220
:101FE0000E9802FB010080B200230290039A0D9923
:101FF000FEF770FF0F98401CC0B20F900F98132887
:10200000E6DB0D98183880B20D906DA10498FEF7AC
:1020100057F900200F9015E04FF6FF7000900F99D0
:102020000498405C039008220E9802FB010080B2E5
:1020300000230290039A0D99FEF74CFF0F98401C65
:10204000C0B20F900F981328E6DB0D98183880B2B5
:102050000D9060A10498FEF733F900200F9015E071
:102060004FF6FF7000900F990498405C039008228F
:102070000E9802FB010080B200230290039A0D9992
:10208000FEF728FF0F98401CC0B20F900F9814283D
:10209000E6DB0D98183880B20D9054A10498FEF735
:1020A0000FF900200F9015E04FF6FF7000900F9988
:1020B0000498405C039008220E9802FB010080B255
:1020C00000230290039A0D99FEF704FF0F98401C1D
:1020D000C0B20F900F981128E6DB0D98183880B227
:1020E0000D9047A10498FEF7EBF800200F9015E043
:1020F0004FF6FF7000900F990498405C03900822FF
:102100000E9802FB010080B200230290039A0D9901
:10211000FEF7E0FE0F98401CC0B20F900F981428F5
:10212000E6DB0D98183880B20D903BA10498FEF7BD
:10213000C7F800200F9015E04FF6FF7000900F9940
:102140000498405C039008220E9802FB010080B2C4
:1021500000230290039A0D99FEF7BCFE0F98401CD5
:10216000C0B20F900F981128E6DB0D98183880B296
:102170000D902EA10498FEF7A3F800200F9016E012
:102180004FF6FF7000900F990498405C039008226E
:10219000DDE90E1002FB001080B200230290039ACA
:1021A0000D99FEF797FE0F98401CC0B20F900F9844
:1021B0001128E5DB0498FEF75CF811B000BD0000C3
:1021C000283229204B5032203D204D4F5645204487
:1021D0004F574E00283329204B5033203D204D4F80
:1021E0005645205249474854000000002834292011
:1021F0004B5035203D204D4F564520555000000096
:10220000283529204B5034203D20504C4143452057
:102210004449534300000000283629204B50372002
:102220003D20524553544152540000002837292084
:102230004B5038203D20544F20484F4D4500000062
:102240002DE9F04F8FB04FF030094FF0740B484636
:102250004FEAE97109EB51714FEAE10A99A2D2E91B
:1022600000109268CDE90D020C9199A2D2E90010FC
:102270009268CDE90A02099198A30FCB05AC0FC46F
:102280009AA30FCB01AC0FC45E25C826002726E019
:10229000002420E04FF0000819E0AAF1010008FB3B
:1022A0000A00C01B9549085C204100F0010050B1B4
:1022B000082202FB0762224491B205EB080290B2A9
:1022C0000022FEF74FFC08F1010000F0FF08D8459E
:1022D000E3DB601CC4B2082CDCDB781CC7B25745BA
:1022E000D6DB402596264FF6FF70A5F1220100901F
:1022F00088B2002342223146FEF7ECFD4FF6FF7014
:10230000A5F11A01009088B2002359223146FEF748
:10231000E1FD4FF6FF70A5F11201009088B2002395
:102320003A223146FEF7D6FD00241CE04FF6FF703E
:10233000102101FB0451009088B20023224631464F
:10234000FEF73EFE4FF6FF70E31CDAB2A6F118036B
:1023500099B2102303FB0453009098B20023FEF7B8
:102360002FFE601CC4B2032CE0DB05F1400085B2F7
:1023700000241DE04FF6FF7009A900900A5D0821B6
:1023800001FB045188B200233146FEF7A3FD4FF64E
:10239000FF700CAB00901A5DA6F1180399B20823E8
:1023A00003FB045398B20023FEF794FD601CC4B2F3
:1023B0000A2CDFDB44255A2600241DE04FF6FF706F
:1023C00005A900900A5D082101FB045188B2002391
:1023D0003146FEF77FFD4FF6FF7001AB00901A5DAE
:1023E000A6F1200399B2082303FB045398B20023FB
:1023F000FEF770FD601CC4B20C2CDFDB4FF6FF70E3
:1024000000909DF8202005F1600188B24FF47843D8
:102410003146FEF75FFD4FF6FF7000909DF81020EB
:10242000A6F1200399B205F1600398B21F23FEF7CD
:1024300051FD1E25C826302033460246294600900D
:102440000020FEF7B7FB2820331D291D024600900F
:1024500040F2EF70FEF7AEFB2820331D291D024627
:10246000009040F2EF70FEF7A5FB2820331D05F128
:102470001601042200900020FEF79CFB042006F1C8
:102480001603291D282200900020FEF793FB711DE2
:10249000681D0122FEF7EAFF06F11B0105F11B0092
:1024A0000122FEF7E3FF06F11B01681D0222FEF781
:1024B000DDFF711D05F11B000222FEF7D7FF0FB0F3
:1024C000BDE8F08F313135353134373438370000DD
:1024D00031313535313439353234000053544152BD
:1024E00054207072657373203700000052554C45BC
:1024F000532070726573732038000000BE410008DD
:1025000078B50646012E23D140254FF48E74102055
:102510000090A4F5847083B2082229464FF6FF701C
:10252000FEF748FB10200090A4F1180083B2A5F13B
:102530001C0081B2A8224FF6FF70FEF73BFB08207B
:10254000231D0246294600901F20FEF733FB22E0A0
:10255000022E20D140251424102004F58473082273
:10256000294600904FF6FF70FEF724FB102004F17F
:1025700018030090A5F11C0081B2A8224FF6FF704D
:10258000FEF718FB0820231D0246294600904FF451
:102590007140FEF70FFB78BDF8B504469025012C7D
:1025A00026D14FF48E76264800780A2190FBF1F070
:1025B0003030C7B24FF6FF7000233A4631460090E4
:1025C0002846FEF787FC1E4800780A2190FBF1F2AE
:1025D00001FB12003030C7B24FF6FF7005F1080161
:1025E000009088B200233A463146FEF773FC26E09D
:1025F000022C24D11426134800780A2190FBF1F014
:102600003030C7B24FF6FF7000233A463146009093
:102610002846FEF75FFC0B4800780A2190FBF1F298
:1026200001FB12003030C7B24FF6FF7005F1080110
:10263000009088B200233A463146FEF74BFCF8BDC5
:102640002800002029000020014908807047000070
:102650000008006C0149088070470000FE07006C0C
:102660002DE9F05F05460E46300101F0F1F8814694
:10267000284905FB01F001F0EBF88246494601F0DC
:1026800005F80746384601F0C3F884B2204601F049
:10269000DFF88346394601F0BBF982464FF08341AB
:1026A00001F0EAF8814601F0B3F880464FF6FF707A
:1026B00000EA041404EB080084B21748806940F073
:1026C0000400154988610846C06940F40030C861BB
:1026D0001248006820F47F401049086008460068EE
:1026E00040F40B4008600C48006940F400300A498F
:1026F00008610846006920F4003008610848048039
:10270000001D008842F2080108430549091D0880A0
:10271000BDE8F09F40420F00001002400008014059
:102720000844004007210020254A5268254B1A40E2
:10273000234B5A601A461268234B1A40204B1A60EA
:102740001A46126842F480321A6000BF1C4A1268AE
:10275000520C002AFAD04FF48062194B5A601A4684
:10276000526822F460525A601A46526842EA814224
:102770005A601A46526842F480325A60134A12680C
:1027800042F03002114B1A600D4A126842F080721A
:102790000B4B1A6000BF0A4A1268520E002AFAD088
:1027A000074A526842F00202054B5A6005E0044AAB
:1027B0005268C2F3870000F003000228F7D1704787
:1027C000001002400000FFF8FFFFF6FE002002406C
:1027D00000BFFEE770477047704710B500F002F881
:1027E00010BD00000CB50020019000903348006837
:1027F00040F480303149086000BF3048006800F480
:10280000003000900198401C0190009818B9019880
:10281000B0F5A06FF1D12948006800F4003010B184
:102820000120009001E0002000900098012843D191
:102830002348006840F010002149086008460068FD
:1028400020F0030008600846006840F002000860BD
:102850001A48406819494860084640684860084678
:10286000406840F4806048600846406820F47C106E
:1028700048600846406840F4E81048600846006830
:1028800040F08070086000BF0C48006800F00070E5
:102890000028F9D00948406820F003000749486043
:1028A0000846406840F00200486000BF03484068A6
:1028B00000F00C000828F9D10CBD00000010024007
:1028C000002002400F480078401C0E4908700E4856
:1028D0000078401C0C4908700C480078401C0B49DB
:1028E00008700B480078401C0949087009480078B6
:1028F000401C0849087008480078401C06490870C8
:1029000070470000320000203E0000203F00002001
:1029100040000020410000204200002010B5134874
:10292000006840F0010011490860084640681049FD
:1029300008400E494860084600680E4908400B49A7
:1029400008600846006820F4802008600846406857
:1029500020F4FE0048604FF41F008860FFF73DFF41
:102960004FF000600449086010BD000000100240F4
:102970000000FFF8FFFFF6FE08ED00E008480088C1
:1029800000F0010028B10748006880F020000549E8
:1029900008600348008820F0010001490880704762
:1029A000100400400C0C01400848008800F00100B1
:1029B00020B107480078401C05490870034800888A
:1029C00020F0010001490880704700001008004015
:1029D0003200002010B5024600201EE0012A0AD174
:1029E0000B5C104C238000BF0E4B1B1F1B8803F099
:1029F0008003002BF8D0022A0AD10B5C0A4C2380FA
:102A000000BF094B1B1F1B8803F08003002BF8D06D
:102A1000FF2800D104E0431CD8B20B5C002BDDD1B1
:102A200000BF10BD043801400444004000BFFEE771
:102A300070B505460820FDF7EDFB0446E570002063
:102A4000A0702070681E6070E078FDF7E3FB6060A6
:102A5000204670BD10B50246104600F0A5FD08B135
:102A6000082010BD11785068435C1078401CD17864
:102A700090FBF1F401FB140010709078401E9070F0
:102A80001846EEE710B503460C46184600F093FDD5
:102A900000B110BD5878401CD97890FBF1F201FBD1
:102AA000120058705978586844549878401C9870AF
:102AB00000BFEEE708B5FFF735FE4FF416512420AE
:102AC000FFF7CEFD0520FDF7B3FFFDF7C5FFFDF7CE
:102AD00055FFFDF773FFFEF719F80720F849087056
:102AE0000020F8490870F8490870FEF7D7F800BFD1
:102AF000F64800780A28FBDD0020F449087025E339
:102B0000F148007800287CD1EE480078EC4909783B
:102B1000884277D0EB480078082874D2DFE800F0CC
:102B20000414252C333AA3A74FF4A0700023F022FD
:102B3000194600904FF6FF70FEF73CF8FFF780FB58
:102B40000020E349087099E04FF4A0700023F022C0
:102B5000194600904FF6FF70FEF72CF80120FEF7A3
:102B60001FFD0020DA49087088E00220FEF718FDFA
:102B70000020D749087081E00320FEF711FD0020F6
:102B8000D34908707AE00420FEF70AFD0020D049FE
:102B9000087073E04FF4A0700023F02219460090F3
:102BA0004FF6FF70FEF706F8CAA10220FFF712FFEA
:102BB000CCA10220FFF70EFF0020CB490870CB49C3
:102BC00008700120C24908700020C949087001201E
:102BD000C84908700020C8490870C8490870C84929
:102BE00008700120C74908700220C74908700820F2
:102BF000C649087048700320C54908704870C54828
:102C000002E0E4E046E038E000F0A4FCC24800F056
:102C1000A1FCC24800F09EFCC14800F09BFC402093
:102C2000FFF706FFBB4908604020FFF701FFBA49E4
:102C300008604020FFF7FCFEB84908604020FFF71D
:102C4000F7FEB7490860FDF72FFDFDF711FDFDF711
:102C500017FDFEF725FAAB480078FFF751FC01207D
:102C6000B04908700AE000209949087006E0FEF7B4
:102C7000C9FA00209649087000E000BF00BF9148E3
:102C800000788F4908708F480078062802D1052007
:102C90008C4908708B48007805287DD1A1480078C0
:102CA0000028FAD19348007818B31F25954800787A
:102CB000022801D14FF47145002411E021469648C5
:102CC000006800F059FC064621469248006800F072
:102CD00053FC07462A463146FEF770FB601CC4B21F
:102CE0008C4800688078A042E8DC002081490870A8
:102CF00000BF8248007828B3844A517810780022B7
:102D0000FDF793FF7F480078012806D1804A51786B
:102D100010781F22FDF789FF0AE07A480078022820
:102D200006D17B4A517810784FF47142FDF77DFF50
:102D300077480078754908707548407848700020D9
:102D40006E4908706E480078C0B16E4802787648C7
:102D5000017876480078FEF7DFFB6B480078FFF7D4
:102D60001BFC684801787248704A127800EBC20078
:102D70006D4A127881540020614908705E480078DD
:102D8000F0B16048047860480078FFF7B9FB5E480E
:102D900000785C49087000E015E05B480470654805
:102DA0000078654908700020534908700120514996
:102DB000087052490870032055490870487000BFD8
:102DC00001205849087001203F49087093E33E48AC
:102DD000007801286FD1594800680B286CD35848F7
:102DE000006820F4006056490860002055490870CA
:102DF0005549087055480088C0F347005449086099
:102E00005248007800F0010038B950480088C0F3FB
:102E1000802010B101204C4908704B4800780028F0
:102E20004CD04B48007800F00F004949096880EA0F
:102E300011104849085C4849087008460078434921
:102E40000988C1F34021884206D141480068F02832
:102E500003D101204149087040E14048007860B347
:102E60003B480068722812D006DC69280BD06B281A
:102E700015D06C287AD11AE0732814D0752871D037
:102E80007A2873D107E00020354948706EE00020B1
:102E9000334988706AE000203149C87066E000203C
:102EA0002F49087162E000202D4948715EE0002042
:102EB0002B49C8715AE04AE12EE158E019E151E08E
:102EC0002E0000202F00002054000020320000209F
:102ED0003000002053544152542047414D45212198
:102EE000210000000A000000280000202900002026
:102EF000310000203900002034000020350000207F
:102F0000360000203A0000203B0000202C0000206A
:102F10002A00002044000020480000204C0000202F
:102F2000500000203300002038000020370000202F
:102F3000580000203D0000203C0000200800002038
:102F4000000401403E00002010000020040000208A
:102F50000C000020120000202200002011000020A0
:102F6000180100200020FE49087200BFB3E0FD48B0
:102F7000006872281BD006DC69280BD06B2830D083
:102F80006C2813D147E0732838D0752873D07A287D
:102F9000F7D119E0F248407828B9F348007810B129
:102FA0002820F24908700120ED49487092E0EC4871
:102FB000807828B9EC48007810B12820EC490870D6
:102FC0000120E749887085E0E548C07828B9E648DF
:102FD000007810B12820E74908700120E049C87046
:102FE00078E0DF48007928B9DF48007810B1012087
:102FF000E14908700120DA4908716BE0D84840794E
:1030000028B9D948007810B12820DC49087001207F
:10301000D34948715EE0D248C07938BBD8480078BF
:10302000082821D2DFE800F004080C101418201C36
:103030000520D349087018E00020D149087014E039
:103040000120CF49087010E00220CD4908700CE043
:103050000320CB49087008E00620C949087004E045
:103060000520C749087000E000BF00BF0120BC492F
:10307000C8712FE0FFE7BA48007A38BBC048007833
:10308000082821D2DFE800F004080C101418201CD6
:103090000120BB49087018E00220B949087014E00B
:1030A0000320B749087010E00420B54908700CE00F
:1030B0000020B349087008E00020B149087004E01E
:1030C0000020AF49087000E000BF00BF0120A44904
:1030D000087200BF00BF0020AA490870AA48006813
:1030E000C00AA9490860A94800680B38A7490860C8
:1030F00006E00020A5490860A3490860A1490870BE
:103100004FF40060A2490860A1481438006840F4F8
:1031100000609F49143908609E4800783C2812DB03
:1031200000219C4A1170984A1160984A1160954A92
:103130001170002004E00021894A1154411CC8B2DA
:103140000A28F8DB00BF022093490870D3E19248B7
:1031500000780228FAD184480078002874D08F487B
:103160000078002871D18E48007828B18D48007809
:10317000FDF768FB8C4908707F48007800287CD0F8
:103180008A4800788A4901EBC00088494978405C48
:10319000002873D001208749087084480078864948
:1031A00008708248407885490870FDF7BDFCFDF73E
:1031B0007BFA7C480278814801787F480078FDF7E7
:1031C0007BFA01207549087000207D49087070481D
:1031D0001438006820F400606D49143908608815BF
:1031E0007849086001207849087020207549091D38
:1031F00008600120754908706A480078022825D1C6
:103200000620FDF707F8044671A10220FFF7E2FB54
:1032100071A12046FDF754F86748007841302071CD
:1032200021460220FFF7D6FB6DA12046FDF748F8A6
:10323000624800783130207121460220FFF7CAFB36
:103240002046FDF716F82CE02EE1F9E0554800780D
:10325000012826D10620FCF7DDFF044662A10220EA
:10326000FFF7B8FB5CA12046FDF72AF8524800782A
:10327000413020712146022001E01BE016E0FFF7FB
:10328000A9FB57A12046FDF71BF84C4800783130C8
:10329000207121460220FFF79DFB2046FCF7E9FF45
:1032A00000BFAFF2C0310220FFF794FB002032498B
:1032B000087038E02D480078142809DB2848407849
:1032C00030B10021481EFDF7A1FA002027490870FF
:1032D0002748007814280ADB2148807838B14FF05D
:1032E000FF310020FDF792FA0020214908702148A3
:1032F0000078142809DB1A48C07830B10021012079
:10330000FDF784FA00201B4908701C480078142837
:1033100009DB1348407930B101210020FDF776FA2E
:103320000020164908703248007820490978884200
:1033300005D12F4840781D494978884202D00120A4
:103340002C4908701848007840B92B48007828B1FB
:1033500014480078FEF752F801204FE050E00000DA
:10336000180100200C000020300000203F00002049
:1033700040000020410000204300002042000020C7
:103380002F00002011000020040000200800002071
:10339000140401403E0000205400002031000020B1
:1033A000390000203A0000203D0000202A000020C3
:1033B0009800002036000020370000203800002050
:1033C00032000020100C01400000002024000020EA
:1033D00057484954453A2000524F573D202000009D
:1033E000434F4C3D20200000424C41434B3A2000CB
:1033F0002C000020350000203C0000203F490870D0
:103400003F48007810B93F48007830B13E48007816
:103410003E4909780844402805DB00203C490870F3
:1034200007203C4908703C48007828B93B480078A0
:1034300010B93B480078B8B300203A49087057E00B
:103440003948007850B139480078022806DB4FF43B
:10345000807037490860002033490870354800788B
:1034600050B132480078022806DB20203049091F7D
:10347000086000202F4908702C480078142837DB9A
:103480002D48006800F090F878B1FDF7F1F80020C1
:103490002A4908702A48006840F4006028490860FA
:1034A00001201649087020E022E001201C49087024
:1034B00021480068FFF7CEFA2249087022480068C8
:1034C000FFF7C8FA214908700020184908704FF426
:1034D00080701749091F08600120134908702020D7
:1034E0001349086001201349087000200D49087035
:1034F000002017490870FFF703BB000034000020CC
:103500003D0000203C000020280000202900002071
:10351000300000202F00002035000020390000205E
:103520003600002033000020000000203200002080
:10353000140C0140240000204C0000203100002029
:103540000004014037000020500000203800002017
:103550005400002010B5044604B910BD206800B91D
:10356000FBE721684868FCF784FE2068FCF781FED1
:103570000020206000BFF0E710B502460B46104661
:1035800000F012F808B1082010BD9078984201DCD4
:103590000820F9E710781844D17890FBF1F401FB8A
:1035A00014005168085CEFE70146887808B90120EB
:1035B00070470020FCE701468878CA78904201D124
:1035C000012070470020FCE790EA010F48BF81F01E
:1035D000004100F12E82421A3CBF801A89184FEA3E
:1035E000D0524FF07F4C1CEA410FA2EBD15318BFD1
:1035F0009CEA026F00F03B804FF0004C4CEA002048
:103600004CEA012121FA03FC10EB0C0C1ED202F152
:10361000FF325FEA1C2040EBC25038BF70471CF0FD
:103620007F0F4FEA400C18BFBCF17F4F38BF704787
:10363000C3F12003994008BF20F00100BCF17F4F87
:1036400038BF7047A0F1C04000F0DDB94FEA3C0040
:10365000000A40EBC25028BF1CF0FF0F4FEA400C9D
:10366000E6D018BFBCF17F4F38BF7047EAE79CEA4D
:10367000026F05D010EA5C0F08BF00F000407047F1
:1036800010B500F07AF900BF64FBBE3E4FF47F0C2A
:103690001CEAD0121EBF1CEAD11392EA0C0F93EA67
:1036A0000C0F00F0858090EA010F48BF42F4807251
:1036B00040F4000C41F400002CF07F4120F07F40EA
:1036C00000B58142A2EB03020FF2081CACEB504E96
:1036D000C0F100009EF800E04FEA4E0E00FB0EFC29
:1036E00038BF49004FEA2C1C02F5FA020CFB0EF31E
:1036F0004FEACE1E4FEA112C4FEAC1210EEB635E5A
:1037000042EB22420EFB0CFC4FEA1C5300FB031160
:103710004FEA112C4FEA01310EFB0CFC4FEADC4C56
:1037200000FB0C11C14228BF09184CEB03335DF8B4
:1037300004EB10EB410143EBC250B2F57C0F38BFF4
:10374000704729D512F0F00F1CBF00F1C04000F007
:1037500000407047008182838485868788898B8CAE
:103760008D8E8F919293959697999A9C9D9FA0A2EA
:10377000A3A5A7A8AAACAEB0B2B3B5B7B9BCBEC03A
:10378000C2C5C7C9CCCED1D4D7D9DCDFE2E6E9ECDB
:10379000F0F3F7FAFE0000004FEA400C0CF1807CD9
:1037A000BCF17E4F28BF7047B0F1C04000F02BB98C
:1037B00090EA010F0CEAD11348BF42F480726245CF
:1037C00038BF634507D213F47F0F16D080EA01009B
:1037D00000F00040704710B500F0CFF8097EFC3EC5
:1037E00000F005B880EA010000F00040704780EA70
:1037F000010000F0004000F006B912F47F0F04BF92
:103800000248704780EA010000F0FDB80000C07F68
:10381000C10DD1F19E0206DB4FEA002343F00043C5
:1038200023FA02F07047004207D54FEA4001B1F198
:10383000FE4F02D24FF00000704710B500F09DF827
:1038400049922480002070476FEA200070470000F2
:10385000B0FA80F310FA03F2C3F19D030AD0D90540
:1038600001EB1220530638BF704700F1010008BF7A
:1038700020F00100704700004FF47F0C1CEAD012CA
:103880001EBF1CEAD11392EA0C0F93EA0C0F00F052
:10389000478090EA010F48BF42F480724FF0004C1D
:1038A0004CEA00204CEA012102EB0302A0FB0113C9
:1038B000A2F50002002918BF43F001035B0028BFF6
:1038C0004FEA330342EB22425FEA132C4CEBC25027
:1038D0002EBFBCEB436FB2F57C0F70474FEA036C11
:1038E000BCF1004F08BF20F00100B2F57C0F38BFDB
:1038F00070470BD582F0FF0212F5803FC8BF7047BA
:1039000000F1C040D8BF00F00040704700F5000C47
:103910005FEA4C0C48BF7047B0F1C04000F073B88C
:1039200090EA010F0CEAD11348BF42F4807262455D
:1039300038BF634504D280EA010000F000407047C0
:1039400010B500F01AF800BF8900013E00F007B87A
:1039500000F009B85FEA410C5FEA1C6C08D080EA0D
:10396000010000F050B85FEA400C5FEA1C6CF6D131
:103970004FF00040A0F5800070470EF1020E2EF0CF
:10398000030E5EF8044B244204D44FEA4102B2F124
:103990007F4F11D84FEA4003B3F17F4F0CD80ED1BF
:1039A0004FEAD07CB2F17F4F0CEB4C0C0CF1020CC7
:1039B00008BF4CEBD17C04E04FF0080C01E04FEA6B
:1039C000D17C0CEB4C0324FA03F404F00704B4F1AB
:1039D000040C06D20EEB840CBDE810404CF0010C38
:1039E0006047DFE80CF0070802024FF00040A0F546
:1039F000800010BD0846420018BFD2F1807288BF17
:103A000000F0004010BDFF2141EAD050C0057047D2
:103A100080F0004090EA010F7FF5DDAD81F00041BC
:103A200000F007B890EA010F48BF81F000413FF570
:103A3000D2AD421A04D882F00042A0EB0200114439
:103A40004FEAD0524FF07F4C1CEA410FA2EBD1530A
:103A500018BF9CEA026F4AD04FF0004C4CEA00209D
:103A60004CEA012121FA03FCB0EB0C0C0FD412F04C
:103A7000FE0F36D05FEA4C001DD5001240EBC2505D
:103A800038BF70471CF03F0F18BF70470BE0A2F122
:103A900001025FEA1C2040EBC25038BF70471CF0A7
:103AA0007F0F18BF7047C3F12003994014BF401E19
:103AB00020F00100704780084FEA122308BF7047CA
:103AC000B0FA80FCA2EB0C02CCF1280C60FA0CF0EE
:103AD00093EA122F04BF00EBC25070474FEAC37045
:103AE0007047130A5FEADC1008BF7047F6E79CEAEC
:103AF000026F04D010EA5C0F08BF0020704710B5B9
:103B0000FFF73BFF40DFF63E81F0004070470000CA
:103B100000000000000000000000000000000000A5
:103B2000000000001FCC000C00000000000000009E
:103B30000800300060000800300060000000022033
:103B400003FC1E20022003FC1E20022000000000B7
:103B50000E1811043FFF10840C78000000000F00C5
:103B600010840F3800C007781884007800000078AF
:103B70000F8410C411240E9800E40084000808008B
:103B8000680070000000000000000000000000005D
:103B90000000000007E018182004400200000000A8
:103BA00040022004181807E0000000000000024056
:103BB000024001800FF001800240024000000080BE
:103BC000008000800FF8008000800080000000016D
:103BD000000D000E000000000000000000000000CA
:103BE0000080008000800080008000800080000055
:103BF000000C000C000000000000000000000000AD
:103C00000006001800600180060018002000000077
:103C100007F0080810041004080807F0000000006E
:103C2000080408041FFC0004000400000000000059
:103C30000E0C10141024104411840E0C000000000F
:103C40000C1810041104110412880C7000000000FC
:103C500000E00320042408241FFC002400000000CE
:103C60001F981084110411041088107000000000C7
:103C700007F0088811041104188800700000000083
:103C80001C00100010FC13001C00100000000000BD
:103C90000E3811441084108411440E3800000000C6
:103CA0000700088C10441044088807F0000000004A
:103CB00000000000030C030C0000000000000000E6
:103CC00000000001010600000000000000000000EC
:103CD00000800140022004100808100400000220A7
:103CE0000220022002200220022002200000000008
:103CF00010040808041002200140008000000000A9
:103D00000E001200100C106C10800F00000003E079
:103D10000C1813E4142417C4082807D0000000046A
:103D2000003C03C41C40074000E4001C00041004D5
:103D30001FFC1104110411040E880070000003E040
:103D40000C1810041004100410081C1000001004BB
:103D50001FFC100410041004080807F000001004F1
:103D60001FFC1104110417C41004081800001004EB
:103D70001FFC1104110017C010000800000003E030
:103D80000C181004100410441C78004000001004AB
:103D90001FFC10840080008010841FFC10040000B1
:103DA000100410041FFC10041004000000000003A5
:103DB0000001100110011FFE10001000000010048F
:103DC0001FFC110403801464181C1004000010046C
:103DD0001FFC1004000400040004000C0000100488
:103DE0001FFC1F0000FC1F001FFC1004000010043B
:103DF0001FFC0C04030000E010181FFC100007F06B
:103E00000808100410041004080807F0000010044B
:103E10001FFC10841080108010800F00000007F03D
:103E2000081810241024101C080A07F200001004BF
:103E30001FFC1104110011C011300E0C0004000011
:103E40000E1C11041084108410441C38000018004B
:103E5000100010041FFC10041000180000001000D7
:103E60001FF810040004000410041FF810001000D4
:103E70001E0011E0001C007013801C0010001FC009
:103E8000103C00E01F0000E0103C1FC000001004C8
:103E9000180C163401C001C01634180C10041000A0
:103EA0001C00130400FC13041C0010000000080494
:103EB000101C1064108413041C041018000000006F
:103EC000000000007FFE40024002400200000000AF
:103ED00030000C0003800060001C000300000000A4
:103EE0004002400240027FFE00000000000000008F
:103EF00000002000400040004000200000000001C1
:103F000000010001000100010001000100010000AA
:103F10004000400020000000000000000000000001
:103F20000098012401440144014400FC00041000F5
:103F30001FFC0088010401040088007000000000DC
:103F400000700088010401040104008800000000E2
:103F5000007000880104010411081FFC0004000027
:103F600000F8014401440144014400C8000000007D
:103F7000010401040FFC11041104110018000000D9
:103F800000D601290129012901C9010600001004F8
:103F90001FFC008401000100010400FC000400007B
:103FA0000104190419FC00040004000000000000D2
:103FB000000300010101190119FE000000001004B6
:103FC0001FFC0024004001B4010C010400000000AB
:103FD000100410041FFC0004000400000000010491
:103FE00001FC0104010001FC0104010000FC0104CA
:103FF00001FC008401000100010400FC0004000039
:1040000000F8010401040104010400F800000101AA
:1040100001FF008501040104008800700000000019
:104020000070008801040104010501FF0001010482
:10403000010401FC00840104010001800000000073
:1040400000CC012401240124012401980000000077
:104050000100010007F80104010400000000010054
:1040600001F8000400040004010801FC0004010040
:1040700001800170000C001001600180010001F05E
:10408000010C003001C00030010C01F00100000003
:104090000104018C00740170018C01040000010115
:1040A00001810171000E0018016001800100000013
:1040B0000184010C013401440184010C0000000062
:1040C00000000000000001003EFC40024002000031
:1040D000000000000000FFFF0000000000000000E2
:1040E000400240023EFC0100000000000000000011
:1040F00060008000800040004000200020000000A0
:104100002004210421042104210421043FFC210472
:1041100021042104210421042104200400000000C2
:104120000800116229044FFC2904116804000840AA
:1041300014FE22846184A2842C8430FE00000000DE
:1041400041C041085D4A55545569556AD555D569F0
:10415000555E555055585D54410641C2000000045B
:1041600000083FF02001240729F52955FD576D551A
:1041700075F5B557A555A5F5A80720013000000035
:10418000000400087F304900493C490249027F622F
:1041900049124902490C7F2000100008000000006D
:1041A000084208427FFC0880090222042AB82A84B7
:1041B0002A827FFE2A922A922F9222020000000079
:1041C0000000001E0000000001FF000000000FFFC3
:1041D000000000007FFF00000003FFFE1F0000FF43
:1041E000FFF83FFFFFFFFFC03FFFFFFFFE003FFF65
:1041F000FFFFF0001FFFFFFF800007FFFFFF000031
:1042000007C001FFC0000F8001FFF8001F0003FF7F
:10421000FE003F000FFFFFC07E001FF7FFE07C00A5
:104220003FE1FFF87C00FFC03FFC7E03FF0007FC7E
:104230007F8FFE0001FC7FFFFC00007C3FFFF80049
:1042400000381FFFE0007F000FFF8001FFC001FC6E
:104250000007FFE00000001FFFF00000003FFFF834
:104260000000003FFFFC0000007F9DFC0000007F7D
:104270003CFC0000007CFC7C0000007FFC7C00001B
:10428000007FF8FC0000007FF0FC0000007FE1FCF4
:104290000000007FC1F80000003F83F8000000002C
:1042A00001F00000000000E000000000000000003D
:1042B000001C0000000000FFC000000000FFFC0028
:1042C000000000FFFF800000001FFFF0000000075B
:1042D000FFFC00000001FFFE000000003FFE0000A8
:1042E0000001FFFE0000000FFFFC0000003FFFF098
:1042F0000000007FFF00000000FFF000000000FF52
:104300008000000000FE00000000007800000000B7
:1043100000007F0000000001FFC000000007FFE078
:104320000000001FFFF00000003FFFF80000003F0A
:10433000FFFC0000007F9DFC0000007F3CFC0000B3
:10434000007CFC7C0000007FFC7C0000007FF8FC0F
:104350000000007FF0FC0000007FE1FC0000007F17
:10436000C1F80000003F83F80000000001F00000E9
:10437000000000E000000000000000000078001EC7
:104380000000007FE3FF000000FFFFFF0000007F50
:10439000FFFF0000003FFFFE0000007FFFFC000069
:1043A00000FFFF80000001FE0000000003FC000091
:1043B000000003F00000000003F00000000003F024
:1043C0000000000003FF0000000003FF8000000069
:1043D00001FF8000000000FF80000000007F00005F
:1043E0000000000000000000001F00100000003F5F
:1043F000803C0000007FC07E000000FFE07F0000E6
:1044000001FFE07F000003FFF03F000003FBF87FA7
:10441000000003F3FFFE000003E1FFFE000003E0E5
:10442000FFFC000001C07FF8000000003FF000002A
:1044300000000FC0000000000000000F800000001E
:10444000001FC0FFFFC0001FC3FFFFF8001FC3FF16
:10445000FFFC001FC3FFFFFC000F80FFFFFE0007F3
:10446000000000FE00000000007E00000000003E92
:1044700000000000001C03C00FF03FFC3FFC7FFE6B
:104480007FFEFFFFFFFFFFFFFFFF7FFE7FFE3FFC82
:104490003FFC0FF003C00000018007E01FF81FF889
:1044A0003FFC3FFC7FFE7FFE3FFC3FFC1FF81FF8F8
:1044B00007E0018000000000000100FF0100010191
:1044C00001FFFF00FF01FFFF000100FF01000101EC
:1044D00001FFFF00FF01FFFFF8440008000000207B
:1044E000580000006C0100085045000858000020EA
:1044F00030070000880100080000000000000000F4
:1045000000000000000000000000010000010001A8
:104510000100000101000100000100000000000096
:10452000000003030808070000000000000000006E
:10453000000000000000000000000000000000007B
:10454000000000000000000000000000000000006B
:0400000508000131BD
:00000001FF
